{"abi":[{"type":"constructor","inputs":[{"name":"_lockId","type":"uint256","internalType":"uint256"},{"name":"signatures","type":"tuple[]","internalType":"struct signature[]","components":[{"name":"v","type":"uint8","internalType":"uint8"},{"name":"r","type":"bytes32","internalType":"bytes32"},{"name":"s","type":"bytes32","internalType":"bytes32"}]},{"name":"_controllers","type":"address[]","internalType":"address[]"},{"name":"_threshold","type":"uint256","internalType":"uint256"}],"stateMutability":"nonpayable"},{"type":"function","name":"controllers","inputs":[{"name":"","type":"uint256","internalType":"uint256"}],"outputs":[{"name":"","type":"address","internalType":"address"}],"stateMutability":"view"},{"type":"function","name":"distribute","inputs":[{"name":"signatures","type":"tuple[]","internalType":"struct signature[]","components":[{"name":"v","type":"uint8","internalType":"uint8"},{"name":"r","type":"bytes32","internalType":"bytes32"},{"name":"s","type":"bytes32","internalType":"bytes32"}]}],"outputs":[],"stateMutability":"nonpayable"},{"type":"function","name":"isSolved","inputs":[],"outputs":[{"name":"","type":"bool","internalType":"bool"}],"stateMutability":"view"},{"type":"function","name":"lockId","inputs":[],"outputs":[{"name":"","type":"uint256","internalType":"uint256"}],"stateMutability":"view"},{"type":"function","name":"msgHash","inputs":[],"outputs":[{"name":"","type":"bytes32","internalType":"bytes32"}],"stateMutability":"view"},{"type":"function","name":"threshold","inputs":[],"outputs":[{"name":"","type":"uint256","internalType":"uint256"}],"stateMutability":"view"},{"type":"function","name":"tokens","inputs":[],"outputs":[{"name":"","type":"uint256","internalType":"uint256"}],"stateMutability":"view"},{"type":"function","name":"usedSignatures","inputs":[{"name":"","type":"bytes32","internalType":"bytes32"}],"outputs":[{"name":"","type":"bool","internalType":"bool"}],"stateMutability":"view"},{"type":"function","name":"validateMultiSig","inputs":[{"name":"signatures","type":"tuple[]","internalType":"struct signature[]","components":[{"name":"v","type":"uint8","internalType":"uint8"},{"name":"r","type":"bytes32","internalType":"bytes32"},{"name":"s","type":"bytes32","internalType":"bytes32"}]}],"outputs":[],"stateMutability":"nonpayable"}],"bytecode":{"object":"0x60e06040523480156200001157600080fd5b50604051620022ef380380620022ef833981810160405281019062000037919062000cc8565b80825110158015620000495750600081115b6200008b576040517f08c379a0000000000000000000000000000000000000000000000000000000008152600401620000829062000dd9565b60405180910390fd5b83608081815250508060c081815250508160009080519060200190620000b39291906200082e565b506001808190555060007f19457468657265756d205369676e6564204d6573736167653a0a33320000000060005284601c52603c60002090508060a0818152505062000105846200030160201b60201c565b6000845167ffffffffffffffff81111562000125576200012462000941565b5b604051908082528060200260200182016040528015620001545781602001602082028036833780820191505090505b5090506000855167ffffffffffffffff81111562000177576200017662000941565b5b604051908082528060200260200182016040528015620001a65781602001602082028036833780820191505090505b5090506000865167ffffffffffffffff811115620001c957620001c862000941565b5b604051908082528060200260200182016040528015620001f85781602001602082028036833780820191505090505b50905060005b8751811015620002f2578781815181106200021e576200021d62000dfb565b5b60200260200101516000015184828151811062000240576200023f62000dfb565b5b602002602001019060ff16908160ff16815250508781815181106200026a576200026962000dfb565b5b6020026020010151602001518382815181106200028c576200028b62000dfb565b5b602002602001018181525050878181518110620002ae57620002ad62000dfb565b5b602002602001015160400151828281518110620002d057620002cf62000dfb565b5b6020026020010181815250508080620002e99062000e59565b915050620001fe565b5050505050505050506200124d565b6000808054905067ffffffffffffffff81111562000324576200032362000941565b5b604051908082528060200260200182016040528015620003535781602001602082028036833780820191505090505b5090506000805b8351811015620005145760006200039485838151811062000380576200037f62000dfb565b5b60200260200101516200056160201b60201c565b9050620003a881856200079e60201b60201c565b15620003eb576040517f08c379a0000000000000000000000000000000000000000000000000000000008152600401620003e29062000f1c565b60405180910390fd5b60005b838110156200049b578173ffffffffffffffffffffffffffffffffffffffff1685828151811062000424576200042362000dfb565b5b602002602001015173ffffffffffffffffffffffffffffffffffffffff160362000485576040517f08c379a00000000000000000000000000000000000000000000000000000000081526004016200047c9062000f8e565b60405180910390fd5b8080620004929062000e59565b915050620003ee565b5080848481518110620004b357620004b262000dfb565b5b602002602001019073ffffffffffffffffffffffffffffffffffffffff16908173ffffffffffffffffffffffffffffffffffffffff16815250508280620004fa9062000e59565b9350505080806200050b9062000e59565b9150506200035a565b5060c05181146200055c576040517f08c379a0000000000000000000000000000000000000000000000000000000008152600401620005539062001000565b60405180910390fd5b505050565b600080826000015190506000836020015190506000846040015190506000600160a05185858560405160008152602001604052604051620005a6949392919062001044565b6020604051602081039080840390855afa158015620005c9573d6000803e3d6000fd5b5050506020604051035190506200066f8160008054806020026020016040519081016040528092919081815260200182805480156200065e57602002820191906000526020600020905b8160009054906101000a900473ffffffffffffffffffffffffffffffffffffffff1673ffffffffffffffffffffffffffffffffffffffff168152602001906001019080831162000613575b50505050506200079e60201b60201c565b620006b1576040517f08c379a0000000000000000000000000000000000000000000000000000000008152600401620006a890620010e1565b60405180910390fd5b600060405180606001604052808560001c81526020018460001c81526020018660ff16815250604051602001620006e99190620011be565b6040516020818303038152906040528051906020012090506002600082815260200190815260200160002060009054906101000a900460ff161562000765576040517f08c379a00000000000000000000000000000000000000000000000000000000081526004016200075c906200122b565b60405180910390fd5b60016002600083815260200190815260200160002060006101000a81548160ff0219169083151502179055508195505050505050919050565b600080600090505b825181101562000822578373ffffffffffffffffffffffffffffffffffffffff16838281518110620007dd57620007dc62000dfb565b5b602002602001015173ffffffffffffffffffffffffffffffffffffffff16036200080c57600191505062000828565b8080620008199062000e59565b915050620007a6565b50600090505b92915050565b828054828255906000526020600020908101928215620008aa579160200282015b82811115620008a95782518260006101000a81548173ffffffffffffffffffffffffffffffffffffffff021916908373ffffffffffffffffffffffffffffffffffffffff160217905550916020019190600101906200084f565b5b509050620008b99190620008bd565b5090565b5b80821115620008d8576000816000905550600101620008be565b5090565b6000604051905090565b600080fd5b600080fd5b6000819050919050565b6200090581620008f0565b81146200091157600080fd5b50565b6000815190506200092581620008fa565b92915050565b600080fd5b6000601f19601f8301169050919050565b7f4e487b7100000000000000000000000000000000000000000000000000000000600052604160045260246000fd5b6200097b8262000930565b810181811067ffffffffffffffff821117156200099d576200099c62000941565b5b80604052505050565b6000620009b2620008dc565b9050620009c0828262000970565b919050565b600067ffffffffffffffff821115620009e357620009e262000941565b5b602082029050602081019050919050565b600080fd5b600080fd5b600060ff82169050919050565b62000a1681620009fe565b811462000a2257600080fd5b50565b60008151905062000a368162000a0b565b92915050565b6000819050919050565b62000a518162000a3c565b811462000a5d57600080fd5b50565b60008151905062000a718162000a46565b92915050565b60006060828403121562000a905762000a8f620009f9565b5b62000a9c6060620009a6565b9050600062000aae8482850162000a25565b600083015250602062000ac48482850162000a60565b602083015250604062000ada8482850162000a60565b60408301525092915050565b600062000afd62000af784620009c5565b620009a6565b9050808382526020820190506060840283018581111562000b235762000b22620009f4565b5b835b8181101562000b50578062000b3b888262000a77565b84526020840193505060608101905062000b25565b5050509392505050565b600082601f83011262000b725762000b716200092b565b5b815162000b8484826020860162000ae6565b91505092915050565b600067ffffffffffffffff82111562000bab5762000baa62000941565b5b602082029050602081019050919050565b600073ffffffffffffffffffffffffffffffffffffffff82169050919050565b600062000be98262000bbc565b9050919050565b62000bfb8162000bdc565b811462000c0757600080fd5b50565b60008151905062000c1b8162000bf0565b92915050565b600062000c3862000c328462000b8d565b620009a6565b9050808382526020820190506020840283018581111562000c5e5762000c5d620009f4565b5b835b8181101562000c8b578062000c76888262000c0a565b84526020840193505060208101905062000c60565b5050509392505050565b600082601f83011262000cad5762000cac6200092b565b5b815162000cbf84826020860162000c21565b91505092915050565b6000806000806080858703121562000ce55762000ce4620008e6565b5b600062000cf58782880162000914565b945050602085015167ffffffffffffffff81111562000d195762000d18620008eb565b5b62000d278782880162000b5a565b935050604085015167ffffffffffffffff81111562000d4b5762000d4a620008eb565b5b62000d598782880162000c95565b925050606062000d6c8782880162000914565b91505092959194509250565b600082825260208201905092915050565b7f496e76616c696420636f6e666967000000000000000000000000000000000000600082015250565b600062000dc1600e8362000d78565b915062000dce8262000d89565b602082019050919050565b6000602082019050818103600083015262000df48162000db2565b9050919050565b7f4e487b7100000000000000000000000000000000000000000000000000000000600052603260045260246000fd5b7f4e487b7100000000000000000000000000000000000000000000000000000000600052601160045260246000fd5b600062000e6682620008f0565b91507fffffffffffffffffffffffffffffffffffffffffffffffffffffffffffffffff820362000e9b5762000e9a62000e2a565b5b600182019050919050565b7f53616d65207369676e65722063616e6e6f74207369676e206d756c7469706c6560008201527f2074696d65730000000000000000000000000000000000000000000000000000602082015250565b600062000f0460268362000d78565b915062000f118262000ea6565b604082019050919050565b6000602082019050818103600083015262000f378162000ef5565b9050919050565b7f4475706c6963617465207369676e657200000000000000000000000000000000600082015250565b600062000f7660108362000d78565b915062000f838262000f3e565b602082019050919050565b6000602082019050818103600083015262000fa98162000f67565b9050919050565b7f4e6f7420656e6f7567682076616c6964207369676e6572730000000000000000600082015250565b600062000fe860188362000d78565b915062000ff58262000fb0565b602082019050919050565b600060208201905081810360008301526200101b8162000fd9565b9050919050565b6200102d8162000a3c565b82525050565b6200103e81620009fe565b82525050565b60006080820190506200105b600083018762001022565b6200106a602083018662001033565b62001079604083018562001022565b62001088606083018462001022565b95945050505050565b7f5369676e6572206973206e6f74206120636f6e74726f6c6c6572000000000000600082015250565b6000620010c9601a8362000d78565b9150620010d68262001091565b602082019050919050565b60006020820190508181036000830152620010fc81620010ba565b9050919050565b600060039050919050565b600081905092915050565b6000819050919050565b6200112e81620008f0565b82525050565b600062001142838362001123565b60208301905092915050565b6000602082019050919050565b620011668162001103565b6200117281846200110e565b92506200117f8262001119565b8060005b83811015620011b65781516200119a878262001134565b9650620011a7836200114e565b92505060018101905062001183565b505050505050565b6000606082019050620011d560008301846200115b565b92915050565b7f5369676e61747572652068617320616c7265616479206265656e207573656400600082015250565b600062001213601f8362000d78565b91506200122082620011db565b602082019050919050565b60006020820190508181036000830152620012468162001204565b9050919050565b60805160a05160c0516110646200128b600039600081816101c801526104280152600081816104950152610538015260006101f801526110646000f3fe608060405234801561001057600080fd5b50600436106100935760003560e01c8063781ca2c811610066578063781ca2c81461010e5780639d63848a1461012a578063e4e6cf4f14610148578063e94b0dd214610166578063f978fd611461019657610093565b806342cde4e81461009857806364d98f6e146100b657806366fa1932146100d457806369db018e146100f2575b600080fd5b6100a06101c6565b6040516100ad91906107fc565b60405180910390f35b6100be6101ea565b6040516100cb9190610832565b60405180910390f35b6100dc6101f6565b6040516100e991906107fc565b60405180910390f35b61010c60048036038101906101079190610a92565b61021a565b005b61012860048036038101906101239190610a92565b61023f565b005b61013261048d565b60405161013f91906107fc565b60405180910390f35b610150610493565b60405161015d9190610aea565b60405180910390f35b610180600480360381019061017b9190610b31565b6104b7565b60405161018d9190610b9f565b60405180910390f35b6101b060048036038101906101ab9190610bba565b6104f6565b6040516101bd9190610832565b60405180910390f35b7f000000000000000000000000000000000000000000000000000000000000000081565b60008060015414905090565b7f000000000000000000000000000000000000000000000000000000000000000081565b6102238161023f565b60018060008282546102359190610c16565b9250508190555050565b6000808054905067ffffffffffffffff81111561025f5761025e610877565b5b60405190808252806020026020018201604052801561028d5781602001602082028036833780820191505090505b5090506000805b83518110156104255760006102c28583815181106102b5576102b4610c4a565b5b6020026020010151610516565b90506102ce818561075c565b1561030e576040517f08c379a000000000000000000000000000000000000000000000000000000000815260040161030590610cfc565b60405180910390fd5b60005b838110156103b4578173ffffffffffffffffffffffffffffffffffffffff1685828151811061034357610342610c4a565b5b602002602001015173ffffffffffffffffffffffffffffffffffffffff16036103a1576040517f08c379a000000000000000000000000000000000000000000000000000000000815260040161039890610d68565b60405180910390fd5b80806103ac90610d88565b915050610311565b50808484815181106103c9576103c8610c4a565b5b602002602001019073ffffffffffffffffffffffffffffffffffffffff16908173ffffffffffffffffffffffffffffffffffffffff1681525050828061040e90610d88565b93505050808061041d90610d88565b915050610294565b507f00000000000000000000000000000000000000000000000000000000000000008114610488576040517f08c379a000000000000000000000000000000000000000000000000000000000815260040161047f90610e1c565b60405180910390fd5b505050565b60015481565b7f000000000000000000000000000000000000000000000000000000000000000081565b600081815481106104c757600080fd5b906000526020600020016000915054906101000a900473ffffffffffffffffffffffffffffffffffffffff1681565b60026020528060005260406000206000915054906101000a900460ff1681565b60008082600001519050600083602001519050600084604001519050600060017f0000000000000000000000000000000000000000000000000000000000000000858585604051600081526020016040526040516105779493929190610e4b565b6020604051602081039080840390855afa158015610599573d6000803e3d6000fd5b50505060206040510351905061063581600080548060200260200160405190810160405280929190818152602001828054801561062b57602002820191906000526020600020905b8160009054906101000a900473ffffffffffffffffffffffffffffffffffffffff1673ffffffffffffffffffffffffffffffffffffffff16815260200190600101908083116105e1575b505050505061075c565b610674576040517f08c379a000000000000000000000000000000000000000000000000000000000815260040161066b90610edc565b60405180910390fd5b600060405180606001604052808560001c81526020018460001c81526020018660ff168152506040516020016106aa9190610fa7565b6040516020818303038152906040528051906020012090506002600082815260200190815260200160002060009054906101000a900460ff1615610723576040517f08c379a000000000000000000000000000000000000000000000000000000000815260040161071a9061100e565b60405180910390fd5b60016002600083815260200190815260200160002060006101000a81548160ff0219169083151502179055508195505050505050919050565b600080600090505b82518110156107d7578373ffffffffffffffffffffffffffffffffffffffff1683828151811061079757610796610c4a565b5b602002602001015173ffffffffffffffffffffffffffffffffffffffff16036107c45760019150506107dd565b80806107cf90610d88565b915050610764565b50600090505b92915050565b6000819050919050565b6107f6816107e3565b82525050565b600060208201905061081160008301846107ed565b92915050565b60008115159050919050565b61082c81610817565b82525050565b60006020820190506108476000830184610823565b92915050565b6000604051905090565b600080fd5b600080fd5b600080fd5b6000601f19601f8301169050919050565b7f4e487b7100000000000000000000000000000000000000000000000000000000600052604160045260246000fd5b6108af82610866565b810181811067ffffffffffffffff821117156108ce576108cd610877565b5b80604052505050565b60006108e161084d565b90506108ed82826108a6565b919050565b600067ffffffffffffffff82111561090d5761090c610877565b5b602082029050602081019050919050565b600080fd5b600080fd5b600060ff82169050919050565b61093e81610928565b811461094957600080fd5b50565b60008135905061095b81610935565b92915050565b6000819050919050565b61097481610961565b811461097f57600080fd5b50565b6000813590506109918161096b565b92915050565b6000606082840312156109ad576109ac610923565b5b6109b760606108d7565b905060006109c78482850161094c565b60008301525060206109db84828501610982565b60208301525060406109ef84828501610982565b60408301525092915050565b6000610a0e610a09846108f2565b6108d7565b90508083825260208201905060608402830185811115610a3157610a3061091e565b5b835b81811015610a5a5780610a468882610997565b845260208401935050606081019050610a33565b5050509392505050565b600082601f830112610a7957610a78610861565b5b8135610a898482602086016109fb565b91505092915050565b600060208284031215610aa857610aa7610857565b5b600082013567ffffffffffffffff811115610ac657610ac561085c565b5b610ad284828501610a64565b91505092915050565b610ae481610961565b82525050565b6000602082019050610aff6000830184610adb565b92915050565b610b0e816107e3565b8114610b1957600080fd5b50565b600081359050610b2b81610b05565b92915050565b600060208284031215610b4757610b46610857565b5b6000610b5584828501610b1c565b91505092915050565b600073ffffffffffffffffffffffffffffffffffffffff82169050919050565b6000610b8982610b5e565b9050919050565b610b9981610b7e565b82525050565b6000602082019050610bb46000830184610b90565b92915050565b600060208284031215610bd057610bcf610857565b5b6000610bde84828501610982565b91505092915050565b7f4e487b7100000000000000000000000000000000000000000000000000000000600052601160045260246000fd5b6000610c21826107e3565b9150610c2c836107e3565b9250828203905081811115610c4457610c43610be7565b5b92915050565b7f4e487b7100000000000000000000000000000000000000000000000000000000600052603260045260246000fd5b600082825260208201905092915050565b7f53616d65207369676e65722063616e6e6f74207369676e206d756c7469706c6560008201527f2074696d65730000000000000000000000000000000000000000000000000000602082015250565b6000610ce6602683610c79565b9150610cf182610c8a565b604082019050919050565b60006020820190508181036000830152610d1581610cd9565b9050919050565b7f4475706c6963617465207369676e657200000000000000000000000000000000600082015250565b6000610d52601083610c79565b9150610d5d82610d1c565b602082019050919050565b60006020820190508181036000830152610d8181610d45565b9050919050565b6000610d93826107e3565b91507fffffffffffffffffffffffffffffffffffffffffffffffffffffffffffffffff8203610dc557610dc4610be7565b5b600182019050919050565b7f4e6f7420656e6f7567682076616c6964207369676e6572730000000000000000600082015250565b6000610e06601883610c79565b9150610e1182610dd0565b602082019050919050565b60006020820190508181036000830152610e3581610df9565b9050919050565b610e4581610928565b82525050565b6000608082019050610e606000830187610adb565b610e6d6020830186610e3c565b610e7a6040830185610adb565b610e876060830184610adb565b95945050505050565b7f5369676e6572206973206e6f74206120636f6e74726f6c6c6572000000000000600082015250565b6000610ec6601a83610c79565b9150610ed182610e90565b602082019050919050565b60006020820190508181036000830152610ef581610eb9565b9050919050565b600060039050919050565b600081905092915050565b6000819050919050565b610f25816107e3565b82525050565b6000610f378383610f1c565b60208301905092915050565b6000602082019050919050565b610f5981610efc565b610f638184610f07565b9250610f6e82610f12565b8060005b83811015610f9f578151610f868782610f2b565b9650610f9183610f43565b925050600181019050610f72565b505050505050565b6000606082019050610fbc6000830184610f50565b92915050565b7f5369676e61747572652068617320616c7265616479206265656e207573656400600082015250565b6000610ff8601f83610c79565b915061100382610fc2565b602082019050919050565b6000602082019050818103600083015261102781610feb565b905091905056fea264697066735822122076adab3cf8321ef505732680598714fa195a80012ec97ba7febc33d5feacd15b64736f6c63430008130033","linkReferences":{}},"methodIdentifiers":{"controllers(uint256)":"e94b0dd2","distribute((uint8,bytes32,bytes32)[])":"69db018e","isSolved()":"64d98f6e","lockId()":"66fa1932","msgHash()":"e4e6cf4f","threshold()":"42cde4e8","tokens()":"9d63848a","usedSignatures(bytes32)":"f978fd61","validateMultiSig((uint8,bytes32,bytes32)[])":"781ca2c8"},"id":0}